{"abi":[{"type":"constructor","inputs":[],"stateMutability":"nonpayable"},{"type":"function","name":"DEFAULT_ADMIN_ROLE","inputs":[],"outputs":[{"name":"","type":"bytes32","internalType":"bytes32"}],"stateMutability":"view"},{"type":"function","name":"UPGRADER_ROLE","inputs":[],"outputs":[{"name":"","type":"bytes32","internalType":"bytes32"}],"stateMutability":"view"},{"type":"function","name":"UPGRADE_INTERFACE_VERSION","inputs":[],"outputs":[{"name":"","type":"string","internalType":"string"}],"stateMutability":"view"},{"type":"function","name":"exit","inputs":[{"name":"_assetID","type":"uint256","internalType":"uint256"},{"name":"_from","type":"address","internalType":"address"},{"name":"_tokenID","type":"uint256","internalType":"uint256"},{"name":"_value","type":"uint256","internalType":"uint256"}],"outputs":[],"stateMutability":"nonpayable"},{"type":"function","name":"fetchRegistry","inputs":[],"outputs":[{"name":"","type":"address","internalType":"address"}],"stateMutability":"view"},{"type":"function","name":"fetchUSIToken","inputs":[],"outputs":[{"name":"","type":"address","internalType":"address"}],"stateMutability":"view"},{"type":"function","name":"fetchUSPToken","inputs":[],"outputs":[{"name":"","type":"address","internalType":"address"}],"stateMutability":"view"},{"type":"function","name":"getRoleAdmin","inputs":[{"name":"role","type":"bytes32","internalType":"bytes32"}],"outputs":[{"name":"","type":"bytes32","internalType":"bytes32"}],"stateMutability":"view"},{"type":"function","name":"grantRole","inputs":[{"name":"role","type":"bytes32","internalType":"bytes32"},{"name":"account","type":"address","internalType":"address"}],"outputs":[],"stateMutability":"nonpayable"},{"type":"function","name":"hasRole","inputs":[{"name":"role","type":"bytes32","internalType":"bytes32"},{"name":"account","type":"address","internalType":"address"}],"outputs":[{"name":"","type":"bool","internalType":"bool"}],"stateMutability":"view"},{"type":"function","name":"initialize","inputs":[{"name":"_registry","type":"address","internalType":"address"}],"outputs":[],"stateMutability":"nonpayable"},{"type":"function","name":"isTrustedForwarder","inputs":[{"name":"forwarder","type":"address","internalType":"address"}],"outputs":[{"name":"","type":"bool","internalType":"bool"}],"stateMutability":"view"},{"type":"function","name":"proxiableUUID","inputs":[],"outputs":[{"name":"","type":"bytes32","internalType":"bytes32"}],"stateMutability":"view"},{"type":"function","name":"put","inputs":[{"name":"_to","type":"address","internalType":"address"},{"name":"_metadata","type":"tuple","internalType":"struct YLD_Metadata","components":[{"name":"assetID","type":"uint256","internalType":"uint256"},{"name":"uri","type":"string","internalType":"string"},{"name":"assetValue","type":"uint256","internalType":"uint256"},{"name":"stableValueGross","type":"uint256","internalType":"uint256"},{"name":"stableValueNet","type":"uint256","internalType":"uint256"},{"name":"depositTimestamp","type":"uint256","internalType":"uint256"},{"name":"depositfeeAmount","type":"uint256","internalType":"uint256"},{"name":"haircutAmount","type":"uint256","internalType":"uint256"},{"name":"haircutAmountAssetValue","type":"uint256","internalType":"uint256"},{"name":"withdrawfeeAmount","type":"uint256","internalType":"uint256"},{"name":"insurancefeeAmount","type":"uint256","internalType":"uint256"},{"name":"Fees","type":"tuple","internalType":"struct FeeStruct","components":[{"name":"depositFee","type":"uint256","internalType":"uint256"},{"name":"hairCut","type":"uint256","internalType":"uint256"},{"name":"withdrawFee","type":"uint256","internalType":"uint256"},{"name":"insuranceFee","type":"uint256","internalType":"uint256"},{"name":"duration","type":"uint256","internalType":"uint256"},{"name":"yieldDuration","type":"uint256","internalType":"uint256"}]},{"name":"additionalBuffer","type":"bytes","internalType":"bytes"},{"name":"isDisabled","type":"bool","internalType":"bool"}]}],"outputs":[{"name":"","type":"uint256","internalType":"uint256"}],"stateMutability":"nonpayable"},{"type":"function","name":"renounceRole","inputs":[{"name":"role","type":"bytes32","internalType":"bytes32"},{"name":"callerConfirmation","type":"address","internalType":"address"}],"outputs":[],"stateMutability":"nonpayable"},{"type":"function","name":"revokeRole","inputs":[{"name":"role","type":"bytes32","internalType":"bytes32"},{"name":"account","type":"address","internalType":"address"}],"outputs":[],"stateMutability":"nonpayable"},{"type":"function","name":"supportsInterface","inputs":[{"name":"interfaceId","type":"bytes4","internalType":"bytes4"}],"outputs":[{"name":"","type":"bool","internalType":"bool"}],"stateMutability":"view"},{"type":"function","name":"trustedForwarder","inputs":[],"outputs":[{"name":"","type":"address","internalType":"address"}],"stateMutability":"view"},{"type":"function","name":"updateTrustedForwarder","inputs":[{"name":"_newForwarder","type":"address","internalType":"address"}],"outputs":[],"stateMutability":"nonpayable"},{"type":"function","name":"upgradeToAndCall","inputs":[{"name":"newImplementation","type":"address","internalType":"address"},{"name":"data","type":"bytes","internalType":"bytes"}],"outputs":[],"stateMutability":"payable"},{"type":"function","name":"version","inputs":[],"outputs":[{"name":"","type":"uint256","internalType":"uint256"}],"stateMutability":"view"},{"type":"event","name":"ContractUpgraded","inputs":[{"name":"newImplementation","type":"address","indexed":false,"internalType":"address"}],"anonymous":false},{"type":"event","name":"Initialized","inputs":[{"name":"version","type":"uint64","indexed":false,"internalType":"uint64"}],"anonymous":false},{"type":"event","name":"RoleAdminChanged","inputs":[{"name":"role","type":"bytes32","indexed":true,"internalType":"bytes32"},{"name":"previousAdminRole","type":"bytes32","indexed":true,"internalType":"bytes32"},{"name":"newAdminRole","type":"bytes32","indexed":true,"internalType":"bytes32"}],"anonymous":false},{"type":"event","name":"RoleGranted","inputs":[{"name":"role","type":"bytes32","indexed":true,"internalType":"bytes32"},{"name":"account","type":"address","indexed":true,"internalType":"address"},{"name":"sender","type":"address","indexed":true,"internalType":"address"}],"anonymous":false},{"type":"event","name":"RoleRevoked","inputs":[{"name":"role","type":"bytes32","indexed":true,"internalType":"bytes32"},{"name":"account","type":"address","indexed":true,"internalType":"address"},{"name":"sender","type":"address","indexed":true,"internalType":"address"}],"anonymous":false},{"type":"event","name":"TrustedForwarderUpdated","inputs":[{"name":"previousForwarder","type":"address","indexed":true,"internalType":"address"},{"name":"newForwarder","type":"address","indexed":true,"internalType":"address"}],"anonymous":false},{"type":"event","name":"Upgraded","inputs":[{"name":"implementation","type":"address","indexed":true,"internalType":"address"}],"anonymous":false},{"type":"event","name":"exitEvent","inputs":[{"name":"_id","type":"uint256","indexed":true,"internalType":"uint256"},{"name":"_to","type":"address","indexed":true,"internalType":"address"},{"name":"_value","type":"uint256","indexed":false,"internalType":"uint256"},{"name":"_tokenID","type":"uint256","indexed":false,"internalType":"uint256"}],"anonymous":false},{"type":"event","name":"putEvent","inputs":[{"name":"_id","type":"uint256","indexed":true,"internalType":"uint256"},{"name":"_to","type":"address","indexed":true,"internalType":"address"},{"name":"_metadata","type":"tuple","indexed":false,"internalType":"struct YLD_Metadata","components":[{"name":"assetID","type":"uint256","internalType":"uint256"},{"name":"uri","type":"string","internalType":"string"},{"name":"assetValue","type":"uint256","internalType":"uint256"},{"name":"stableValueGross","type":"uint256","internalType":"uint256"},{"name":"stableValueNet","type":"uint256","internalType":"uint256"},{"name":"depositTimestamp","type":"uint256","internalType":"uint256"},{"name":"depositfeeAmount","type":"uint256","internalType":"uint256"},{"name":"haircutAmount","type":"uint256","internalType":"uint256"},{"name":"haircutAmountAssetValue","type":"uint256","internalType":"uint256"},{"name":"withdrawfeeAmount","type":"uint256","internalType":"uint256"},{"name":"insurancefeeAmount","type":"uint256","internalType":"uint256"},{"name":"Fees","type":"tuple","internalType":"struct FeeStruct","components":[{"name":"depositFee","type":"uint256","internalType":"uint256"},{"name":"hairCut","type":"uint256","internalType":"uint256"},{"name":"withdrawFee","type":"uint256","internalType":"uint256"},{"name":"insuranceFee","type":"uint256","internalType":"uint256"},{"name":"duration","type":"uint256","internalType":"uint256"},{"name":"yieldDuration","type":"uint256","internalType":"uint256"}]},{"name":"additionalBuffer","type":"bytes","internalType":"bytes"},{"name":"isDisabled","type":"bool","internalType":"bool"}]},{"name":"_tokenID","type":"uint256","indexed":false,"internalType":"uint256"}],"anonymous":false},{"type":"error","name":"AccessControlBadConfirmation","inputs":[]},{"type":"error","name":"AccessControlUnauthorizedAccount","inputs":[{"name":"account","type":"address","internalType":"address"},{"name":"neededRole","type":"bytes32","internalType":"bytes32"}]},{"type":"error","name":"AddressEmptyCode","inputs":[{"name":"target","type":"address","internalType":"address"}]},{"type":"error","name":"ERC1967InvalidImplementation","inputs":[{"name":"implementation","type":"address","internalType":"address"}]},{"type":"error","name":"ERC1967NonPayable","inputs":[]},{"type":"error","name":"FailedCall","inputs":[]},{"type":"error","name":"InvalidInitialization","inputs":[]},{"type":"error","name":"NotInitializing","inputs":[]},{"type":"error","name":"STBL_AssetDisabled","inputs":[{"name":"id","type":"uint256","internalType":"uint256"}]},{"type":"error","name":"STBL_MaxLimitReached","inputs":[]},{"type":"error","name":"STBL_UnauthorizedIssuer","inputs":[]},{"type":"error","name":"UUPSUnauthorizedCallContext","inputs":[]},{"type":"error","name":"UUPSUnsupportedProxiableUUID","inputs":[{"name":"slot","type":"bytes32","internalType":"bytes32"}]}],"bytecode":{"object":"0x60c0604052346100445761001161008c565b610019610049565b61320961031b823960805181505060a0518181816127d1015281816128360152612adb015261320990f35b61004f565b60405190565b5f80fd5b90565b60018060a01b031690565b90565b61007861007361007d92610053565b610061565b610056565b90565b61008990610064565b90565b61009d6100985f610080565b6100db565b6100a56101f1565b565b6100bb6100b66100c092610056565b610061565b610056565b90565b6100cc906100a7565b90565b6100d8906100c3565b90565b6100e4906100f2565b6100ed306100cf565b60a052565b6100fb906100fd565b565b608052565b60401c90565b60ff1690565b61011a61011f91610102565b610108565b90565b61012c905461010e565b90565b5f0190565b5f1c90565b60018060401b031690565b61015061015591610134565b610139565b90565b6101629054610144565b90565b60018060401b031690565b5f1b90565b9061018660018060401b0391610170565b9181191691161790565b6101a461019f6101a992610165565b610061565b610165565b90565b90565b906101c46101bf6101cb92610190565b6101ac565b8254610175565b9055565b6101d890610165565b9052565b91906101ef905f602085019401906101cf565b565b6101f96102a9565b6102045f8201610122565b61028d576102135f8201610158565b61022b61022560018060401b03610165565b91610165565b03610234575b50565b610247905f60018060401b0391016101af565b60018060401b036102847fc7f505b2f371ae2175ee4913f4499e1f2633a7b5936321eed1cdaeb6115181d29161027b610049565b918291826101dc565b0390a15f610231565b5f63f92ee8a960e01b8152806102a56004820161012f565b0390fd5b6102b1610306565b90565b5f90565b90565b90565b6102d26102cd6102d7926102b8565b610170565b6102bb565b90565b6103037ff0c57e16840df040f15088dc2f81fe391c3923bec73e23a9662efc9c229c6a006102be565b90565b61030e6102b4565b506103176102da565b9056fe60806040526004361015610013575b610d2e565b61001d5f3561016c565b806301ffc9a714610167578063248a9ca3146101625780632f2ff15d1461015d57806336568abe146101585780634f1ef2861461015357806352d1902d1461014e57806354fd4d5014610149578063572b6c05146101445780637da0a8771461013f5780637f9761021461013a57806391d1485414610135578063a217fddf14610130578063ad3cb1cc1461012b578063b814dec314610126578063c4d66de814610121578063d1f989261461011c578063d547741f14610117578063dd0b9ff014610112578063f72c0d8b1461010d578063f7603564146101085763f90b03110361000e57610cfb565b610cc6565b610c91565b610c2d565b610bf9565b610bc4565b610b91565b610b5b565b610880565b61074f565b6106de565b6106a7565b610609565b6105b2565b61055f565b610505565b6104cc565b610368565b610334565b610293565b6101f8565b60e01c90565b60405190565b5f80fd5b5f80fd5b5f80fd5b63ffffffff60e01b1690565b61019981610184565b036101a057565b5f80fd5b905035906101b182610190565b565b906020828203126101cc576101c9915f016101a4565b90565b61017c565b151590565b6101df906101d1565b9052565b91906101f6905f602085019401906101d6565b565b346102285761022461021361020e3660046101b3565b610d36565b61021b610172565b918291826101e3565b0390f35b610178565b90565b6102398161022d565b0361024057565b5f80fd5b9050359061025182610230565b565b9060208282031261026c57610269915f01610244565b90565b61017c565b61027a9061022d565b9052565b9190610291905f60208501940190610271565b565b346102c3576102bf6102ae6102a9366004610253565b610dc5565b6102b6610172565b9182918261027e565b0390f35b610178565b60018060a01b031690565b6102dc906102c8565b90565b6102e8816102d3565b036102ef57565b5f80fd5b90503590610300826102df565b565b919060408382031261032a578061031e610327925f8601610244565b936020016102f3565b90565b61017c565b5f0190565b346103635761034d610347366004610302565b90610e19565b610355610172565b8061035f8161032f565b0390f35b610178565b346103975761038161037b366004610302565b90610e25565b610389610172565b806103938161032f565b0390f35b610178565b5f80fd5b5f80fd5b601f801991011690565b634e487b7160e01b5f52604160045260245ffd5b906103cc906103a4565b810190811067ffffffffffffffff8211176103e657604052565b6103ae565b906103fe6103f7610172565b92836103c2565b565b67ffffffffffffffff811161041e5761041a6020916103a4565b0190565b6103ae565b90825f939282370152565b9092919261044361043e82610400565b6103eb565b9381855260208501908284011161045f5761045d92610423565b565b6103a0565b9080601f830112156104825781602061047f9335910161042e565b90565b61039c565b9190916040818403126104c7576104a0835f83016102f3565b92602082013567ffffffffffffffff81116104c2576104bf9201610464565b90565b610180565b61017c565b6104e06104da366004610487565b90610e96565b6104e8610172565b806104f28161032f565b0390f35b5f91031261050057565b61017c565b34610535576105153660046104f6565b610531610520610f0d565b610528610172565b9182918261027e565b0390f35b610178565b90565b6105469061053a565b9052565b919061055d905f6020850194019061053d565b565b3461058f5761056f3660046104f6565b61058b61057a610f48565b610582610172565b9182918261054a565b0390f35b610178565b906020828203126105ad576105aa915f016102f3565b90565b61017c565b346105e2576105de6105cd6105c8366004610594565b610f5d565b6105d5610172565b918291826101e3565b0390f35b610178565b6105f0906102d3565b9052565b9190610607905f602085019401906105e7565b565b34610639576106193660046104f6565b610635610624610fb3565b61062c610172565b918291826105f4565b0390f35b610178565b6106478161053a565b0361064e57565b5f80fd5b9050359061065f8261063e565b565b6080818303126106a257610677825f8301610652565b9261069f61068884602085016102f3565b936106968160408601610652565b93606001610652565b90565b61017c565b346106d9576106c36106ba366004610661565b92919091611767565b6106cb610172565b806106d58161032f565b0390f35b610178565b3461070f5761070b6106fa6106f4366004610302565b906117b2565b610702610172565b918291826101e3565b0390f35b610178565b90565b5f1b90565b61073061072b61073592610714565b610717565b61022d565b90565b6107415f61071c565b90565b61074c610738565b90565b3461077f5761075f3660046104f6565b61077b61076a610744565b610772610172565b9182918261027e565b0390f35b610178565b67ffffffffffffffff81116107a25761079e6020916103a4565b0190565b6103ae565b906107b96107b483610784565b6103eb565b918252565b5f7f352e302e30000000000000000000000000000000000000000000000000000000910152565b6107ef60056107a7565b906107fc602083016107be565b565b6108066107e5565b90565b6108116107fe565b90565b61081c610809565b90565b5190565b60209181520190565b90825f9392825e0152565b61085661085f6020936108649361084d8161081f565b93848093610823565b9586910161082c565b6103a4565b0190565b61087d9160208201915f818403910152610837565b90565b346108b0576108903660046104f6565b6108ac61089b610814565b6108a3610172565b91829182610868565b0390f35b610178565b5f80fd5b5f80fd5b909291926108d26108cd82610784565b6103eb565b938185526020850190828401116108ee576108ec92610423565b565b6103a0565b9080601f830112156109115781602061090e933591016108bd565b90565b61039c565b919060c083820312610998576109919061093060c06103eb565b9361093d825f8301610652565b5f86015261094e8260208301610652565b60208601526109608260408301610652565b60408601526109728260608301610652565b60608601526109848260808301610652565b608086015260a001610652565b60a0830152565b6108b5565b6109a6816101d1565b036109ad57565b5f80fd5b905035906109be8261099d565b565b91909161026081840312610b11576109d96101c06103eb565b926109e6815f8401610652565b5f850152602082013567ffffffffffffffff8111610b0c5781610a0a9184016108f3565b6020850152610a1c8160408401610652565b6040850152610a2e8160608401610652565b6060850152610a408160808401610652565b6080850152610a528160a08401610652565b60a0850152610a648160c08401610652565b60c0850152610a768160e08401610652565b60e0850152610a89816101008401610652565b610100850152610a9d816101208401610652565b610120850152610ab1816101408401610652565b610140850152610ac5816101608401610916565b6101608501526102208201359167ffffffffffffffff8311610b0757610af082610aff948301610464565b610180860152610240016109b1565b6101a0830152565b6108b9565b6108b9565b6108b5565b919091604081840312610b5657610b2f835f83016102f3565b92602082013567ffffffffffffffff8111610b5157610b4e92016109c0565b90565b610180565b61017c565b34610b8c57610b88610b77610b71366004610b16565b90611e72565b610b7f610172565b9182918261054a565b0390f35b610178565b34610bbf57610ba9610ba4366004610594565b612486565b610bb1610172565b80610bbb8161032f565b0390f35b610178565b34610bf457610bd43660046104f6565b610bf0610bdf612491565b610be7610172565b918291826105f4565b0390f35b610178565b34610c2857610c12610c0c366004610302565b906124d9565b610c1a610172565b80610c248161032f565b0390f35b610178565b34610c5d57610c3d3660046104f6565b610c59610c486124e5565b610c50610172565b918291826105f4565b0390f35b610178565b7f189ab7a9244df0848122154315af71fe140f3db0fe014031783b0946b8c9d2e390565b610c8e610c62565b90565b34610cc157610ca13660046104f6565b610cbd610cac610c86565b610cb4610172565b9182918261027e565b0390f35b610178565b34610cf657610cd63660046104f6565b610cf2610ce1612503565b610ce9610172565b918291826105f4565b0390f35b610178565b34610d2957610d13610d0e366004610594565b61259d565b610d1b610172565b80610d258161032f565b0390f35b610178565b5f80fd5b5f90565b610d3e610d32565b5080610d59610d53637965db0b60e01b610184565b91610184565b14908115610d66575b5090565b610d7091506125a8565b5f610d62565b5f90565b610d839061022d565b90565b90610d9090610d7a565b5f5260205260405f2090565b5f1c90565b90565b610db0610db591610d9c565b610da1565b90565b610dc29054610da4565b90565b6001610de6610dec92610dd6610d76565b505f610de06125ce565b01610d86565b01610db8565b90565b90610e0a91610e05610e0082610dc5565b6125f2565b610e0c565b565b90610e169161263c565b50565b90610e2391610def565b565b9080610e40610e3a610e356126f3565b6102d3565b916102d3565b03610e5157610e4e91612707565b50565b5f63334bd91960e11b815280610e696004820161032f565b0390fd5b90610e7f91610e7a6127c0565b610e81565b565b90610e9491610e8f81612970565b6129cc565b565b90610ea091610e6d565b565b610eb390610eae612aca565b610f01565b90565b90565b610ecd610ec8610ed292610eb6565b610717565b61022d565b90565b610efe7f360894a13ba1a3210667c828492db98dca3e2076cc3735a920a3ca505d382bbc610eb9565b90565b50610f0a610ed5565b90565b610f1d610f18610d76565b610ea2565b90565b5f90565b90565b610f33610f3891610d9c565b610f24565b90565b610f459054610f27565b90565b610f50610f20565b50610f5a5f610f3b565b90565b610f65610d32565b50610f7f610f79610f74610fb3565b6102d3565b916102d3565b1490565b5f90565b60018060a01b031690565b610f9e610fa391610d9c565b610f87565b90565b610fb09054610f92565b90565b610fbb610f83565b50610fc66004610fa6565b90565b60018060a01b031690565b610fe0610fe591610d9c565b610fc9565b90565b610ff29054610fd4565b90565b90565b61100c611007611011926102c8565b610ff5565b6102c8565b90565b61101d90610ff8565b90565b61102990611014565b90565b5f80fd5b60e01b90565b905051906110438261063e565b565b9092919261105a61105582610784565b6103eb565b93818552602085019082840111611076576110749261082c565b565b6103a0565b9080601f830112156110995781602061109693519101611045565b90565b61039c565b60ff1690565b6110ad8161109e565b036110b457565b5f80fd5b905051906110c5826110a4565b565b905051906110d48261099d565b565b600511156110e057565b5f80fd5b905051906110f1826110d6565b565b90505190611100826102df565b565b9092919261111761111282610400565b6103eb565b93818552602085019082840111611133576111319261082c565b565b6103a0565b9080601f830112156111565781602061115393519101611102565b90565b61039c565b9190916102808184031261133b576111746102806103eb565b92611181815f8401611036565b5f850152602082015167ffffffffffffffff811161133657816111a591840161107b565b6020850152604082015167ffffffffffffffff811161133157816111ca91840161107b565b60408501526111dc81606084016110b8565b60608501526111ee81608084016110c7565b60808501526112008160a084016110e4565b60a08501526112128160c08401611036565b60c08501526112248160e08401611036565b60e08501526112378161010084016110f3565b61010085015261124b8161012084016110f3565b61012085015261125f8161014084016110f3565b6101408501526112738161016084016110f3565b6101608501526112878161018084016110f3565b61018085015261129b816101a08401611036565b6101a08501526112af816101c08401611036565b6101c08501526112c3816101e08401611036565b6101e08501526112d7816102008401611036565b6102008501526112eb816102208401611036565b6102208501526112ff816102408401611036565b61024085015261026082015167ffffffffffffffff811161132c576113249201611138565b610260830152565b6108b9565b6108b9565b6108b9565b6108b5565b90602082820312611370575f82015167ffffffffffffffff811161136b57611368920161115b565b90565b610180565b61017c565b61137d610172565b3d5f823e3d90fd5b93929190846113ca5f6113a061139b6001610fe8565b611020565b6308c9f4f2906113bf8a926113b3610172565b95869485938493611030565b83526004830161054a565b03915afa908115611475575f91611453575b506113f16113eb823390612b35565b156101d1565b6114375761140161140791612b9e565b156101d1565b61141857611416949550611567565b565b611433865f91829163ada68fe760e01b83526004830161054a565b0390fd5b5f63158eb07360e21b81528061144f6004820161032f565b0390fd5b61146f91503d805f833e61146781836103c2565b810190611340565b5f6113dc565b611375565b60018060a01b031690565b61149161149691610d9c565b61147a565b90565b6114a39054611485565b90565b6114af90611014565b90565b5f9103126114bc57565b61017c565b9160206114e29294936114db60408201965f8301906105e7565b019061053d565b565b60018060a01b031690565b6114fb61150091610d9c565b6114e4565b90565b61150d90546114ef565b90565b61151990611014565b90565b91602061153d92949361153660408201965f83019061053d565b019061053d565b565b61155361154e6115589261053a565b610ff5565b61053a565b90565b61156490611014565b90565b92919261157c6115776002611499565b6114a6565b639dc29fac838592803b15611762576115a85f80946115b361159c610172565b97889687958694611030565b8452600484016114c1565b03925af1801561175d57611731575b506115d56115d06003611503565b611510565b639dc29fac838692803b1561172c576116015f809461160c6115f5610172565b97889687958694611030565b8452600484016114c1565b03925af18015611727576116fb575b5061162e6116296001610fe8565b611020565b63c0fce158828592803b156116f65761165a5f809461166561164e610172565b97889687958694611030565b84526004840161151c565b03925af180156116f1576116c5575b509091926116ab6116a57ffe2d325791945a22681d4c865a6e44dba4c49fc60fe85dd330af489730b2db6e9361153f565b9361155b565b936116c06116b7610172565b9283928361151c565b0390a3565b6116e4905f3d81116116ea575b6116dc81836103c2565b8101906114b2565b5f611674565b503d6116d2565b611375565b61102c565b61171a905f3d8111611720575b61171281836103c2565b8101906114b2565b5f61161b565b503d611708565b611375565b61102c565b611750905f3d8111611756575b61174881836103c2565b8101906114b2565b5f6115c2565b503d61173e565b611375565b61102c565b90611773939291611385565b565b9061177f9061155b565b5f5260205260405f2090565b60ff1690565b61179d6117a291610d9c565b61178b565b90565b6117af9054611791565b90565b6117e1915f6117d66117dc936117c6610d32565b50826117d06125ce565b01610d86565b01611775565b6117a5565b90565b6117ee905161053a565b90565b9291906117ff5f83016117e4565b936118405f6118166118116001610fe8565b611020565b6308c9f4f2906118358992611829610172565b95869485938493611030565b83526004830161054a565b03915afa9081156118ec575f916118ca575b50611867611861823390612b35565b156101d1565b6118ae5761187761187d91612b9e565b156101d1565b61188f5761188c939450611b8d565b90565b6118aa855f91829163ada68fe760e01b83526004830161054a565b0390fd5b5f63158eb07360e21b8152806118c66004820161032f565b0390fd5b6118e691503d805f833e6118de81836103c2565b810190611340565b5f611852565b611375565b9060208282031261190a57611907915f016110c7565b90565b61017c565b9060208282031261192857611925915f01611036565b90565b61017c565b6119369061053a565b9052565b60209181520190565b61196261196b602093611970936119598161081f565b9384809361193a565b9586910161082c565b6103a4565b0190565b9060a0806119de9361198c5f8201515f86019061192d565b61199e6020820151602086019061192d565b6119b06040820151604086019061192d565b6119c26060820151606086019061192d565b6119d46080820151608086019061192d565b015191019061192d565b565b5190565b60209181520190565b611a0c611a15602093611a1a93611a03816119e0565b938480936119e4565b9586910161082c565b6103a4565b0190565b611a27906101d1565b9052565b90611b3e906102406101a0611b33611a636102608501611a515f8901515f88019061192d565b60208801518682036020880152611943565b611a756040880151604087019061192d565b611a876060880151606087019061192d565b611a996080880151608087019061192d565b611aab60a088015160a087019061192d565b611abd60c088015160c087019061192d565b611acf60e088015160e087019061192d565b611ae361010088015161010087019061192d565b611af761012088015161012087019061192d565b611b0b61014088015161014087019061192d565b611b1f610160880151610160870190611974565b6101808701518582036102208701526119ed565b940151910190611a1e565b90565b91611b6492611b5760408201935f8301906105e7565b6020818403910152611a2b565b90565b92916020611b83611b8b9360408701908782035f890152611a2b565b94019061053d565b565b50611ba0611b9b6001610fe8565b611020565b602063e3369a1f91611bb35f86016117e4565b90611bdb611bc3608088016117e4565b94611be6611bcf610172565b96879586948594611030565b84526004840161151c565b03915afa908115611e6d575f91611e3f575b50611e2357611c0f611c0a6001610fe8565b611020565b63eb48b911611c1f5f85016117e4565b611c2b608086016117e4565b92803b15611e1e57611c505f8094611c5b611c44610172565b97889687958694611030565b84526004840161151c565b03925af18015611e1957611ded575b50611c7d611c786002611499565b6114a6565b6340c10f1982611c8f608086016117e4565b92803b15611de857611cb45f8094611cbf611ca8610172565b97889687958694611030565b8452600484016114c1565b03925af18015611de357611db7575b50611ce1611cdc6003611503565b611510565b60206326a75148918390611d085f8795611d13611cfc610172565b97889687958694611030565b845260048401611b41565b03925af1908115611db2575f91611d84575b5091611d325f82016117e4565b91909183611d69611d637f8bbba1c70f474886d845ed3c7c44c6104a008fce4c98ab56e286414505d6c2599361153f565b9361155b565b93611d7e611d75610172565b92839283611b67565b0390a390565b611da5915060203d8111611dab575b611d9d81836103c2565b81019061190f565b5f611d25565b503d611d93565b611375565b611dd6905f3d8111611ddc575b611dce81836103c2565b8101906114b2565b5f611cce565b503d611dc4565b611375565b61102c565b611e0c905f3d8111611e12575b611e0481836103c2565b8101906114b2565b5f611c6a565b503d611dfa565b611375565b61102c565b5f6328f65c5960e21b815280611e3b6004820161032f565b0390fd5b611e60915060203d8111611e66575b611e5881836103c2565b8101906118f1565b5f611bf8565b503d611e4e565b611375565b90611e8491611e7f610f20565b6117f1565b90565b60401c90565b611e99611e9e91611e87565b61178b565b90565b611eab9054611e8d565b90565b67ffffffffffffffff1690565b611ec7611ecc91610d9c565b611eae565b90565b611ed99054611ebb565b90565b67ffffffffffffffff1690565b611efd611ef8611f0292610714565b610ff5565b611edc565b90565b90565b611f1c611f17611f2192611f05565b610ff5565b611edc565b90565b611f2d90611014565b90565b611f44611f3f611f4992610714565b610ff5565b61053a565b90565b90611f5f67ffffffffffffffff91610717565b9181191691161790565b611f7d611f78611f8292611edc565b610ff5565b611edc565b90565b90565b90611f9d611f98611fa492611f69565b611f85565b8254611f4c565b9055565b60401b90565b90611fc268ff000000000000000091611fa8565b9181191691161790565b611fd5906101d1565b90565b90565b90611ff0611feb611ff792611fcc565b611fd8565b8254611fae565b9055565b61200490611f08565b9052565b919061201b905f60208501940190611ffb565b565b612025612bca565b9061203a6120345f8401611ea1565b156101d1565b906120465f8401611ecf565b806120596120535f611ee9565b91611edc565b1480612173575b9061207461206e6001611f08565b91611edc565b148061214b575b6120869091156101d1565b908161213a575b5061211e576120b6906120ab6120a36001611f08565b5f8601611f88565b8261210c575b6122d3565b6120be575b50565b6120cb905f809101611fdb565b60016121037fc7f505b2f371ae2175ee4913f4499e1f2633a7b5936321eed1cdaeb6115181d2916120fa610172565b91829182612008565b0390a15f6120bb565b61211960015f8601611fdb565b6120b1565b5f63f92ee8a960e01b8152806121366004820161032f565b0390fd5b6121459150156101d1565b5f61208d565b5061208661215830611f24565b3b61216b6121655f611f30565b9161053a565b14905061207b565b5082612060565b61218390610ff8565b90565b61218f9061217a565b90565b906121a360018060a01b0391610717565b9181191691161790565b6121b69061217a565b90565b90565b906121d16121cc6121d8926121ad565b6121b9565b8254612192565b9055565b906020828203126121f5576121f2915f016110f3565b90565b61017c565b61220390610ff8565b90565b61220f906121fa565b90565b61221b906121fa565b90565b90565b9061223661223161223d92612212565b61221e565b8254612192565b9055565b61224a90610ff8565b90565b61225690612241565b90565b61226290612241565b90565b90565b9061227d61227861228492612259565b612265565b8254612192565b9055565b61229c6122976122a192610714565b610ff5565b6102c8565b90565b6122ad90612288565b90565b90565b906122c86122c36122cf9261155b565b6122b0565b8254612192565b9055565b61233c612343916122e2612bdf565b6122ea612bf3565b6123036122f5610738565b6122fd6126f3565b9061263c565b5061231d61230f610c62565b6123176126f3565b9061263c565b50612337612329610c62565b612331610738565b90612c29565b612186565b60016121bc565b612370602061235a6123556001610fe8565b611020565b633b3d391190612368610172565b938492611030565b825281806123806004820161032f565b03915afa908115612481576123a7916123a0915f91612453575b50612206565b6002612221565b6123d460206123be6123b96001610fe8565b611020565b63ef3ac1f4906123cc610172565b938492611030565b825281806123e46004820161032f565b03915afa90811561244e5761240b91612404915f91612420575b5061224d565b6003612268565b61241e6124175f6122a4565b60046122b3565b565b612441915060203d8111612447575b61243981836103c2565b8101906121dc565b5f6123fe565b503d61242f565b611375565b612474915060203d811161247a575b61246c81836103c2565b8101906121dc565b5f61239a565b503d612462565b611375565b61248f9061201d565b565b612499610f83565b506124ac6124a76002611499565b6114a6565b90565b906124ca916124c56124c082610dc5565b6125f2565b6124cc565b565b906124d691612707565b50565b906124e3916124af565b565b6124ed610f83565b506125006124fb6001610fe8565b611020565b90565b61250b610f83565b5061251e6125196003611503565b611510565b90565b61253a90612535612530610738565b6125f2565b61253c565b565b6125466004610fa6565b6125518260046122b3565b9061258561257f7f06710129fbc2650f48c82631edcea255e102cd5e17c444deb7273855cfb5e77d9361155b565b9161155b565b9161258e610172565b806125988161032f565b0390a3565b6125a690612521565b565b6125b0610d32565b506125ca6125c46301ffc9a760e01b610184565b91610184565b1490565b7f02dd7bc7dec4dceedda775e58dd541e08a116c6c53815c0bd028192f7b62680090565b612604906125fe6126f3565b90612cce565b565b9061261260ff91610717565b9181191691161790565b9061263161262c61263892611fcc565b611fd8565b8254612606565b9055565b612644610d32565b5061264d6125ce565b61266161265b8385906117b2565b156101d1565b5f146126ec5761268b906126865f61267e81600194018690610d86565b018590611775565b61261c565b906126946126f3565b906126d16126cb6126c57f2f8788117e7eff1d82e926ec794901d17c78024a50270940304540a733656f0d95610d7a565b9261155b565b9261155b565b926126da610172565b806126e48161032f565b0390a4600190565b5050505f90565b6126fb610f83565b50612704612dcc565b90565b61270f610d32565b506127186125ce565b6127238284906117b2565b5f146127ad5761274c906127475f61273f818094018690610d86565b018590611775565b61261c565b906127556126f3565b9061279261278c6127867ff6391f5c32d9c69d2a47ea670b442974b53935d1edc7fd64eb21e047a839171b95610d7a565b9261155b565b9261155b565b9261279b610172565b806127a58161032f565b0390a4600190565b5050505f90565b6127bd90611014565b90565b6127c9306127b4565b6127fb6127f57f00000000000000000000000000000000000000000000000000000000000000006102d3565b916102d3565b148015612825575b61280957565b5f63703e46dd60e11b8152806128216004820161032f565b0390fd5b5061282e612e52565b61286061285a7f00000000000000000000000000000000000000000000000000000000000000006102d3565b916102d3565b1415612803565b6128809061287b612876610c62565b6125f2565b612910565b565b61289661289161289b92611f05565b610ff5565b61053a565b90565b634e487b7160e01b5f52601160045260245ffd5b6128c16128c79193929361053a565b9261053a565b82018092116128d257565b61289e565b906128e35f1991610717565b9181191691161790565b90565b9061290561290061290c9261153f565b6128ed565b82546128d7565b9055565b61293561292f61291f5f610f3b565b6129296001612882565b906128b2565b5f6128f0565b61296b7fc68d6b394bbff225c75b6ba60811fafb0da04351338aa28c9614981c55287be291612962610172565b918291826105f4565b0390a1565b61297990612867565b565b61298490610ff8565b90565b6129909061297b565b90565b61299c90611014565b90565b905051906129ac82610230565b565b906020828203126129c7576129c4915f0161299f565b90565b61017c565b91906129fa60206129e46129df86612987565b612993565b6352d1902d906129f2610172565b938492611030565b82528180612a0a6004820161032f565b03915afa80915f92612a9a575b50155f14612a4b575050906001612a2c57505b565b612a47905f918291634c9c8ce360e01b8352600483016105f4565b0390fd5b9283612a66612a60612a5b610ed5565b61022d565b9161022d565b03612a7b57612a76929350612e78565b612a2a565b612a96845f918291632a87526960e21b83526004830161027e565b0390fd5b612abc91925060203d8111612ac3575b612ab481836103c2565b8101906129ae565b905f612a17565b503d612aaa565b612ad3306127b4565b612b05612aff7f00000000000000000000000000000000000000000000000000000000000000006102d3565b916102d3565b03612b0c57565b5f63703e46dd60e11b815280612b246004820161032f565b0390fd5b612b3290516102d3565b90565b90612b58612b53610120612b5e93612b4b610d32565b509401612b28565b6102d3565b916102d3565b1490565b634e487b7160e01b5f52602160045260245ffd5b60051115612b8057565b612b62565b90612b8f82612b76565b565b612b9b9051612b85565b90565b60a0612bb391612bac610d32565b5001612b91565b612bc6612bc06002612b85565b91612b85565b1490565b612bd2612f4c565b90565b612bdd612f60565b565b612be7612bd5565b565b612bf1612f60565b565b612bfb612be9565b565b612c0690610d9c565b90565b90612c1e612c19612c2592610d7a565b612bfd565b82546128d7565b9055565b90612c326125ce565b91612c56612c3f82610dc5565b936001612c505f8693018590610d86565b01612c09565b91612c93612c8d612c877fbd79b86ffe0ab8e8776151514217cd7cacd52c909f66475c3af44e129f0b00ff95610d7a565b92610d7a565b92610d7a565b92612c9c610172565b80612ca68161032f565b0390a4565b916020612ccc929493612cc560408201965f8301906105e7565b0190610271565b565b90612ce3612cdd8383906117b2565b156101d1565b612ceb575050565b612d055f92839263e2517d3f60e01b845260048401612cab565b0390fd5b5090565b90612d18910361053a565b90565b5f80fd5b5f80fd5b90939293848311612d43578411612d3e576001820201920390565b612d1f565b612d1b565b6bffffffffffffffffffffffff191690565b1b90565b90612d6c612d739183612d09565b9135612d48565b9060148110612d81575b5090565b612d9f906bffffffffffffffffffffffff1990601403600802612d5a565b165f612d7d565b60601c90565b612db8612dbd91612da6565b610ff8565b90565b612dc990612dac565b90565b612dd4610f83565b50612de05f3690612d09565b612de8612f93565b81612dfb612df58361053a565b9161053a565b101580612e43575b5f14612e3657612e28612e2e91612e3393612e205f923692612d0d565b908092612d23565b90612d5e565b612dc0565b90565b5050612e40612fa7565b90565b50612e4d33610f5d565b612e03565b612e5a610f83565b50612e755f612e6f612e6a610ed5565b612fb4565b01610fa6565b90565b90612e8282612fb7565b81612ead7fbc7cd75a20ee27fd9adebab32041f755214dbc6bffa90cc0225b39da2e5c2d3b9161155b565b90612eb6610172565b80612ec08161032f565b0390a2612ecc816119e0565b612ede612ed85f611f30565b9161053a565b115f14612ef257612eee91613087565b505b565b5050612efc61300c565b612ef0565b90565b612f18612f13612f1d92612f01565b610717565b61022d565b90565b612f497ff0c57e16840df040f15088dc2f81fe391c3923bec73e23a9662efc9c229c6a00612f04565b90565b612f54610d76565b50612f5d612f20565b90565b612f71612f6b6130b6565b156101d1565b612f7757565b5f631afcd79f60e31b815280612f8f6004820161032f565b0390fd5b612f9b610f20565b50612fa46130f3565b90565b612faf610f83565b503390565b90565b803b612fcb612fc55f611f30565b9161053a565b14612fed57612feb905f612fe5612fe0610ed5565b612fb4565b016122b3565b565b613008905f918291634c9c8ce360e01b8352600483016105f4565b0390fd5b3461301f6130195f611f30565b9161053a565b1161302657565b5f63b398979f60e01b81528061303e6004820161032f565b0390fd5b606090565b9061305961305483610400565b6103eb565b918252565b3d5f146130795761306e3d613047565b903d5f602084013e5b565b613081613042565b90613077565b5f806130b393613095613042565b508390602081019051915af4906130aa61305e565b90919091613109565b90565b6130be610d32565b506130d15f6130cb612bca565b01611ea1565b90565b90565b6130eb6130e66130f0926130d4565b610ff5565b61053a565b90565b6130fb610f20565b5061310660146130d7565b90565b9061311d90613116613042565b50156101d1565b5f14613129575061318d565b613132826119e0565b61314461313e5f611f30565b9161053a565b1480613172575b613153575090565b61316e905f918291639996b31560e01b8352600483016105f4565b0390fd5b50803b6131876131815f611f30565b9161053a565b1461314b565b613196816119e0565b6131a86131a25f611f30565b9161053a565b115f146131b757602081519101fd5b5f63d6bda27560e01b8152806131cf6004820161032f565b0390fdfea26469706673582212205f6028a6c41ec3bc0d501364fda411291f358784e74aac47551a00df10ebdd4e64736f6c634300081e0033","linkReferences":{}},"methodIdentifiers":{"DEFAULT_ADMIN_ROLE()":"a217fddf","UPGRADER_ROLE()":"f72c0d8b","UPGRADE_INTERFACE_VERSION()":"ad3cb1cc","exit(uint256,address,uint256,uint256)":"7f976102","fetchRegistry()":"dd0b9ff0","fetchUSIToken()":"f7603564","fetchUSPToken()":"d1f98926","getRoleAdmin(bytes32)":"248a9ca3","grantRole(bytes32,address)":"2f2ff15d","hasRole(bytes32,address)":"91d14854","initialize(address)":"c4d66de8","isTrustedForwarder(address)":"572b6c05","proxiableUUID()":"52d1902d","put(address,(uint256,string,uint256,uint256,uint256,uint256,uint256,uint256,uint256,uint256,uint256,(uint256,uint256,uint256,uint256,uint256,uint256),bytes,bool))":"b814dec3","renounceRole(bytes32,address)":"36568abe","revokeRole(bytes32,address)":"d547741f","supportsInterface(bytes4)":"01ffc9a7","trustedForwarder()":"7da0a877","updateTrustedForwarder(address)":"f90b0311","upgradeToAndCall(address,bytes)":"4f1ef286","version()":"54fd4d50"},"id":42}